{
    "txid": "5fad4d2982ea10e960130318f8e6b8ebbeb95d8fcb129933155b7ac90d75ebaa",
    "hash": "5fad4d2982ea10e960130318f8e6b8ebbeb95d8fcb129933155b7ac90d75ebaa",
    "version": 2,
    "locktime": 0,
    "vin": [
        {
            "txid": "5897de6bd6027a475eadd57019d4e6872c396d0716c4875a5f1a6fcfdf385c1f",
            "vout": 0,
            "scriptSig": {
                "asm": "",
                "hex": ""
            },
            "sequence": 4294967295
        },
        {
            "txid": "bf829c6bcf84579331337659d31f89dfd138f7f7785802d5501c92333145ca7c",
            "vout": 18,
            "scriptSig": {
                "asm": "",
                "hex": ""
            },
            "sequence": 4294967295
        },
        {
            "txid": "22a6f904655d53ae2ff70e701a0bbd90aa3975c0f40bfc6cc996a9049e31cdfc",
            "vout": 1,
            "scriptSig": {
                "asm": "",
                "hex": ""
            },
            "sequence": 4294967295
        }
    ],
    "vout": [
        {
            "value": 0.18,
            "n": 0,
            "scriptPubKey": {
                "asm": "OP_DUP OP_HASH160 5478a55e13d55a6c9abf86e1805b87c8c0c99fd8 OP_EQUALVERIFY OP_CHECKSIG",
                "hex": "76a9145478a55e13d55a6c9abf86e1805b87c8c0c99fd888ac",
                "reqSigs": 1,
                "type": "pubkeyhash",
                "addresses": [
                    "PfdRRpkr6gdbc8dwsS4cKwjR6ceyRXwEs8"
                ]
            }
        },
        {
            "value": 4.00,
            "n": 1,
            "scriptPubKey": {
                "asm": "OP_DUP OP_HASH160 202f0159b25c64d616349eca55f8d02c316a5515 OP_EQUALVERIFY OP_CHECKSIG",
                "hex": "76a914202f0159b25c64d616349eca55f8d02c316a551588ac",
                "reqSigs": 1,
                "type": "pubkeyhash",
                "addresses": [
                    "Parx5CnezpAxNVyhqH6Y8mTEqwqPqAW6Bh"
                ]
            }
        }
    ],
    "hex": "02000000031f5c38dfcf6f1a5f5a87c416076d392c87e6d41970d5ad5e477a02d66bde97580000000000ffffffff7cca453133921c50d5025878f7f738d1df891fd359763331935784cf6b9c82bf1200000000fffffffffccd319e04a996c96cfc0bf4c07539aa90bd0b1a700ef72fae535d6504f9a6220100000000ffffffff0280a81201000000001976a9145478a55e13d55a6c9abf86e1805b87c8c0c99fd888ac0084d717000000001976a914202f0159b25c64d616349eca55f8d02c316a551588ac00000000"
}
