{
    "txid": "f9bdbd8a946e6b6f789fff76e4bab33ac5be086108f378e8328b1d21f8630360",
    "hash": "f9bdbd8a946e6b6f789fff76e4bab33ac5be086108f378e8328b1d21f8630360",
    "version": 1,
    "locktime": 0,
    "vin": [
        {
            "txid": "4d49a71ec9da436f71ec4ee231d04f292a29cd316f598bb7068feccabdc59485",
            "vout": 0,
            "scriptSig": {
                "asm": "",
                "hex": ""
            },
            "sequence": 4294967295
        }
    ],
    "vout": [
        {
            "value": 0.001,
            "n": 0,
            "scriptPubKey": {
                "asm": "OP_DUP OP_HASH160 35a9e7f76cea3555952290b5947e3bb611b4e3ad OP_EQUALVERIFY OP_CHECKSIG",
                "hex": "76a91435a9e7f76cea3555952290b5947e3bb611b4e3ad88ac",
                "reqSigs": 1,
                "type": "pubkeyhash",
                "addresses": [
                    "PcpXVXrk4qp5dqSFshfGEgJx1NdmneByUn"
                ]
            }
        }
    ],
    "hex": "01000000018594c5bdcaec8f06b78b596f31cd292a294fd031e24eec716f43dac91ea7494d0000000000ffffffff01a0860100000000001976a91435a9e7f76cea3555952290b5947e3bb611b4e3ad88ac00000000"
}
