{
    "txid": "aaa2d2f9b54a85bab0fa851498b983c51a368b119182d44bfb9109fa2f308e85",
    "hash": "aaa2d2f9b54a85bab0fa851498b983c51a368b119182d44bfb9109fa2f308e85",
    "version": 2,
    "locktime": 0,
    "vin": [
        {
            "txid": "5897de6bd6027a475eadd57019d4e6872c396d0716c4875a5f1a6fcfdf385c1f",
            "vout": 0,
            "scriptSig": {
                "asm": "",
                "hex": ""
            },
            "sequence": 4294967293
        }
    ],
    "vout": [
        {
            "value": 0.18,
            "n": 0,
            "scriptPubKey": {
                "asm": "OP_DUP OP_HASH160 167ecb84dc6528946351786d20905efa94203394 OP_EQUALVERIFY OP_CHECKSIG",
                "hex": "76a914167ecb84dc6528946351786d20905efa9420339488ac",
                "reqSigs": 1,
                "type": "pubkeyhash",
                "addresses": [
                    "PZyiuAyQ9B2hMgdjsD749jp4HFtGXYS9Nd"
                ]
            }
        }
    ],
    "hex": "02000000011f5c38dfcf6f1a5f5a87c416076d392c87e6d41970d5ad5e477a02d66bde97580000000000fdffffff0180a81201000000001976a914167ecb84dc6528946351786d20905efa9420339488ac00000000"
}
